{
  "_format": "hh-sol-artifact-1",
  "contractName": "WavePortal",
  "sourceName": "contracts/WavePortal.sol",
  "abi": [
    {
      "inputs": [],
      "stateMutability": "nonpayable",
      "type": "constructor"
    },
    {
      "anonymous": false,
      "inputs": [
        {
          "indexed": true,
          "internalType": "address",
          "name": "from",
          "type": "address"
        },
        {
          "indexed": false,
          "internalType": "uint256",
          "name": "timestamp",
          "type": "uint256"
        },
        {
          "indexed": false,
          "internalType": "string",
          "name": "message",
          "type": "string"
        }
      ],
      "name": "NewWave",
      "type": "event"
    },
    {
      "inputs": [],
      "name": "getAllWaves",
      "outputs": [
        {
          "components": [
            {
              "internalType": "address",
              "name": "waver",
              "type": "address"
            },
            {
              "internalType": "string",
              "name": "name",
              "type": "string"
            },
            {
              "internalType": "uint256",
              "name": "timestamp",
              "type": "uint256"
            }
          ],
          "internalType": "struct WavePortal.Wave[]",
          "name": "",
          "type": "tuple[]"
        }
      ],
      "stateMutability": "view",
      "type": "function"
    },
    {
      "inputs": [],
      "name": "getTotalWaves",
      "outputs": [
        {
          "internalType": "uint256",
          "name": "",
          "type": "uint256"
        }
      ],
      "stateMutability": "view",
      "type": "function"
    },
    {
      "inputs": [
        {
          "internalType": "address",
          "name": "user",
          "type": "address"
        }
      ],
      "name": "getUsersStats",
      "outputs": [
        {
          "internalType": "uint256",
          "name": "",
          "type": "uint256"
        }
      ],
      "stateMutability": "view",
      "type": "function"
    },
    {
      "inputs": [
        {
          "internalType": "string",
          "name": "_message",
          "type": "string"
        }
      ],
      "name": "wave",
      "outputs": [],
      "stateMutability": "nonpayable",
      "type": "function"
    }
  ],
  "bytecode": "0x60806040523480156200001157600080fd5b506200004160405180606001604052806023815260200162000e40602391396200004760201b620004491760201c565b620001db565b620000e7816040516024016200005e919062000154565b6040516020818303038152906040527f41304fac000000000000000000000000000000000000000000000000000000007bffffffffffffffffffffffffffffffffffffffffffffffffffffffff19166020820180517bffffffffffffffffffffffffffffffffffffffffffffffffffffffff8381831617835250505050620000ea60201b60201c565b50565b60008151905060006a636f6e736f6c652e6c6f679050602083016000808483855afa5050505050565b6000620001208262000178565b6200012c818562000183565b93506200013e81856020860162000194565b6200014981620001ca565b840191505092915050565b6000602082019050818103600083015262000170818462000113565b905092915050565b600081519050919050565b600082825260208201905092915050565b60005b83811015620001b457808201518184015260208101905062000197565b83811115620001c4576000848401525b50505050565b6000601f19601f8301169050919050565b610c5580620001eb6000396000f3fe608060405234801561001057600080fd5b506004361061004c5760003560e01c8063449d46c0146100515780639a2cdc081461006d578063bd43a9081461008b578063cc99820d146100a9575b600080fd5b61006b600480360381019061006691906106f0565b6100d9565b005b6100756102a6565b604051610082919061092c565b60405180910390f35b6100936102af565b6040516100a091906108b8565b60405180910390f35b6100c360048036038101906100be91906106c7565b610400565b6040516100d0919061092c565b60405180910390f35b60016000808282546100eb9190610a33565b925050819055506101316040518060400160405280600c81526020017f2573206861732077617665640000000000000000000000000000000000000000815250336104e2565b60018060003373ffffffffffffffffffffffffffffffffffffffff1673ffffffffffffffffffffffffffffffffffffffff16815260200190815260200160002060008282546101809190610a33565b92505081905550600260405180606001604052803373ffffffffffffffffffffffffffffffffffffffff16815260200183815260200142815250908060018154018082558091505060019003906000526020600020906003020160009091909190915060008201518160000160006101000a81548173ffffffffffffffffffffffffffffffffffffffff021916908373ffffffffffffffffffffffffffffffffffffffff16021790555060208201518160010190805190602001906102469291906105a7565b506040820151816002015550503373ffffffffffffffffffffffffffffffffffffffff167f5f7e16dc676677766a70e9c5628aa6c54ddb8b6e5188e2ae1e1f17f1ffbea716428360405161029b929190610947565b60405180910390a250565b60008054905090565b60606002805480602002602001604051908101604052809291908181526020016000905b828210156103f757838290600052602060002090600302016040518060600160405290816000820160009054906101000a900473ffffffffffffffffffffffffffffffffffffffff1673ffffffffffffffffffffffffffffffffffffffff1673ffffffffffffffffffffffffffffffffffffffff16815260200160018201805461035c90610b07565b80601f016020809104026020016040519081016040528092919081815260200182805461038890610b07565b80156103d55780601f106103aa576101008083540402835291602001916103d5565b820191906000526020600020905b8154815290600101906020018083116103b857829003601f168201915b50505050508152602001600282015481525050815260200190600101906102d3565b50505050905090565b6000600160008373ffffffffffffffffffffffffffffffffffffffff1673ffffffffffffffffffffffffffffffffffffffff168152602001908152602001600020549050919050565b6104df8160405160240161045d91906108da565b6040516020818303038152906040527f41304fac000000000000000000000000000000000000000000000000000000007bffffffffffffffffffffffffffffffffffffffffffffffffffffffff19166020820180517bffffffffffffffffffffffffffffffffffffffffffffffffffffffff838183161783525050505061057e565b50565b61057a82826040516024016104f89291906108fc565b6040516020818303038152906040527f319af333000000000000000000000000000000000000000000000000000000007bffffffffffffffffffffffffffffffffffffffffffffffffffffffff19166020820180517bffffffffffffffffffffffffffffffffffffffffffffffffffffffff838183161783525050505061057e565b5050565b60008151905060006a636f6e736f6c652e6c6f679050602083016000808483855afa5050505050565b8280546105b390610b07565b90600052602060002090601f0160209004810192826105d5576000855561061c565b82601f106105ee57805160ff191683800117855561061c565b8280016001018555821561061c579182015b8281111561061b578251825591602001919060010190610600565b5b509050610629919061062d565b5090565b5b8082111561064657600081600090555060010161062e565b5090565b600061065d6106588461099c565b610977565b90508281526020810184848401111561067557600080fd5b610680848285610ac5565b509392505050565b60008135905061069781610c08565b92915050565b600082601f8301126106ae57600080fd5b81356106be84826020860161064a565b91505092915050565b6000602082840312156106d957600080fd5b60006106e784828501610688565b91505092915050565b60006020828403121561070257600080fd5b600082013567ffffffffffffffff81111561071c57600080fd5b6107288482850161069d565b91505092915050565b600061073d838361084a565b905092915050565b61074e81610a89565b82525050565b61075d81610a89565b82525050565b600061076e826109dd565b6107788185610a00565b93508360208202850161078a856109cd565b8060005b858110156107c657848403895281516107a78582610731565b94506107b2836109f3565b925060208a0199505060018101905061078e565b50829750879550505050505092915050565b60006107e3826109e8565b6107ed8185610a11565b93506107fd818560208601610ad4565b61080681610bf7565b840191505092915050565b600061081c826109e8565b6108268185610a22565b9350610836818560208601610ad4565b61083f81610bf7565b840191505092915050565b60006060830160008301516108626000860182610745565b506020830151848203602086015261087a82826107d8565b915050604083015161088f604086018261089a565b508091505092915050565b6108a381610abb565b82525050565b6108b281610abb565b82525050565b600060208201905081810360008301526108d28184610763565b905092915050565b600060208201905081810360008301526108f48184610811565b905092915050565b600060408201905081810360008301526109168185610811565b90506109256020830184610754565b9392505050565b600060208201905061094160008301846108a9565b92915050565b600060408201905061095c60008301856108a9565b818103602083015261096e8184610811565b90509392505050565b6000610981610992565b905061098d8282610b39565b919050565b6000604051905090565b600067ffffffffffffffff8211156109b7576109b6610bc8565b5b6109c082610bf7565b9050602081019050919050565b6000819050602082019050919050565b600081519050919050565b600081519050919050565b6000602082019050919050565b600082825260208201905092915050565b600082825260208201905092915050565b600082825260208201905092915050565b6000610a3e82610abb565b9150610a4983610abb565b9250827fffffffffffffffffffffffffffffffffffffffffffffffffffffffffffffffff03821115610a7e57610a7d610b6a565b5b828201905092915050565b6000610a9482610a9b565b9050919050565b600073ffffffffffffffffffffffffffffffffffffffff82169050919050565b6000819050919050565b82818337600083830152505050565b60005b83811015610af2578082015181840152602081019050610ad7565b83811115610b01576000848401525b50505050565b60006002820490506001821680610b1f57607f821691505b60208210811415610b3357610b32610b99565b5b50919050565b610b4282610bf7565b810181811067ffffffffffffffff82111715610b6157610b60610bc8565b5b80604052505050565b7f4e487b7100000000000000000000000000000000000000000000000000000000600052601160045260246000fd5b7f4e487b7100000000000000000000000000000000000000000000000000000000600052602260045260246000fd5b7f4e487b7100000000000000000000000000000000000000000000000000000000600052604160045260246000fd5b6000601f19601f8301169050919050565b610c1181610a89565b8114610c1c57600080fd5b5056fea2646970667358221220342308782315610f74adf27938dc8d7432f5036ea3f22f1853bc16d169672acd64736f6c6343000804003342656172732c2042656574732c20426174746c6520537461722047616c616374696361",
  "linkReferences": {},
  "deployedLinkReferences": {}
}