{
  "_format": "hh-sol-artifact-1",
  "contractName": "WavePortal",
  "sourceName": "contracts/WavePortal.sol",
  "abi": [
    {
      "inputs": [],
      "stateMutability": "nonpayable",
      "type": "constructor"
    },
    {
      "inputs": [],
      "name": "getTotalWaves",
      "outputs": [
        {
          "internalType": "uint256",
          "name": "",
          "type": "uint256"
        }
      ],
      "stateMutability": "view",
      "type": "function"
    },
    {
      "inputs": [
        {
          "internalType": "address",
          "name": "user",
          "type": "address"
        }
      ],
      "name": "getUsersStats",
      "outputs": [
        {
          "internalType": "uint256",
          "name": "",
          "type": "uint256"
        }
      ],
      "stateMutability": "view",
      "type": "function"
    },
    {
      "inputs": [],
      "name": "wave",
      "outputs": [],
      "stateMutability": "nonpayable",
      "type": "function"
    }
  ],
  "bytecode": "0x608060405234801561001057600080fd5b5061003c6040518060600160405280602381526020016109ab6023913961004160201b6102611760201c565b6101c4565b6100dd816040516024016100559190610142565b6040516020818303038152906040527f41304fac000000000000000000000000000000000000000000000000000000007bffffffffffffffffffffffffffffffffffffffffffffffffffffffff19166020820180517bffffffffffffffffffffffffffffffffffffffffffffffffffffffff83818316178352505050506100e060201b60201c565b50565b60008151905060006a636f6e736f6c652e6c6f679050602083016000808483855afa5050505050565b600061011482610164565b61011e818561016f565b935061012e818560208601610180565b610137816101b3565b840191505092915050565b6000602082019050818103600083015261015c8184610109565b905092915050565b600081519050919050565b600082825260208201905092915050565b60005b8381101561019e578082015181840152602081019050610183565b838111156101ad576000848401525b50505050565b6000601f19601f8301169050919050565b6107d8806101d36000396000f3fe608060405234801561001057600080fd5b50600436106100415760003560e01c80636fe15b44146100465780639a2cdc0814610050578063cc99820d1461006e575b600080fd5b61004e61009e565b005b61005861014e565b604051610065919061064f565b60405180910390f35b6100886004803603810190610083919061050f565b610199565b604051610095919061064f565b60405180910390f35b60016000808282546100b09190610686565b925050819055506100f66040518060400160405280600c81526020017f2573206861732077617665640000000000000000000000000000000000000000815250336102fa565b60018060003373ffffffffffffffffffffffffffffffffffffffff1673ffffffffffffffffffffffffffffffffffffffff16815260200190815260200160002060008282546101459190610686565b92505081905550565b60006101916040518060400160405280601881526020017f546f74616c204e756d626572206f662077617665732025730000000000000000815250600054610396565b600054905090565b600061021a6040518060400160405280601581526020017f546f74616c2077617665732062792025733a202573000000000000000000000081525083600160008673ffffffffffffffffffffffffffffffffffffffff1673ffffffffffffffffffffffffffffffffffffffff16815260200190815260200160002054610432565b600160008373ffffffffffffffffffffffffffffffffffffffff1673ffffffffffffffffffffffffffffffffffffffff168152602001908152602001600020549050919050565b6102f781604051602401610275919061058f565b6040516020818303038152906040527f41304fac000000000000000000000000000000000000000000000000000000007bffffffffffffffffffffffffffffffffffffffffffffffffffffffff19166020820180517bffffffffffffffffffffffffffffffffffffffffffffffffffffffff83818316178352505050506104d1565b50565b61039282826040516024016103109291906105b1565b6040516020818303038152906040527f319af333000000000000000000000000000000000000000000000000000000007bffffffffffffffffffffffffffffffffffffffffffffffffffffffff19166020820180517bffffffffffffffffffffffffffffffffffffffffffffffffffffffff83818316178352505050506104d1565b5050565b61042e82826040516024016103ac92919061061f565b6040516020818303038152906040527f9710a9d0000000000000000000000000000000000000000000000000000000007bffffffffffffffffffffffffffffffffffffffffffffffffffffffff19166020820180517bffffffffffffffffffffffffffffffffffffffffffffffffffffffff83818316178352505050506104d1565b5050565b6104cc83838360405160240161044a939291906105e1565b6040516020818303038152906040527f07c81217000000000000000000000000000000000000000000000000000000007bffffffffffffffffffffffffffffffffffffffffffffffffffffffff19166020820180517bffffffffffffffffffffffffffffffffffffffffffffffffffffffff83818316178352505050506104d1565b505050565b60008151905060006a636f6e736f6c652e6c6f679050602083016000808483855afa5050505050565b6000813590506105098161078b565b92915050565b60006020828403121561052157600080fd5b600061052f848285016104fa565b91505092915050565b610541816106dc565b82525050565b60006105528261066a565b61055c8185610675565b935061056c818560208601610718565b6105758161077a565b840191505092915050565b6105898161070e565b82525050565b600060208201905081810360008301526105a98184610547565b905092915050565b600060408201905081810360008301526105cb8185610547565b90506105da6020830184610538565b9392505050565b600060608201905081810360008301526105fb8186610547565b905061060a6020830185610538565b6106176040830184610580565b949350505050565b600060408201905081810360008301526106398185610547565b90506106486020830184610580565b9392505050565b60006020820190506106646000830184610580565b92915050565b600081519050919050565b600082825260208201905092915050565b60006106918261070e565b915061069c8361070e565b9250827fffffffffffffffffffffffffffffffffffffffffffffffffffffffffffffffff038211156106d1576106d061074b565b5b828201905092915050565b60006106e7826106ee565b9050919050565b600073ffffffffffffffffffffffffffffffffffffffff82169050919050565b6000819050919050565b60005b8381101561073657808201518184015260208101905061071b565b83811115610745576000848401525b50505050565b7f4e487b7100000000000000000000000000000000000000000000000000000000600052601160045260246000fd5b6000601f19601f8301169050919050565b610794816106dc565b811461079f57600080fd5b5056fea26469706673582212207028878de8831584149e8734c5c1e26d952241ed18b5d8159e24b6aeebaf563764736f6c6343000804003342656172732c2042656574732c20426174746c6520537461722047616c616374696361",
  "linkReferences": {},
  "deployedLinkReferences": {}
}