{
  "_format": "hh-sol-artifact-1",
  "contractName": "WavePortal",
  "sourceName": "contracts/WavePortal.sol",
  "abi": [
    {
      "inputs": [],
      "stateMutability": "payable",
      "type": "constructor"
    },
    {
      "anonymous": false,
      "inputs": [
        {
          "indexed": true,
          "internalType": "address",
          "name": "from",
          "type": "address"
        },
        {
          "indexed": false,
          "internalType": "uint256",
          "name": "timestamp",
          "type": "uint256"
        },
        {
          "indexed": false,
          "internalType": "string",
          "name": "message",
          "type": "string"
        }
      ],
      "name": "NewWave",
      "type": "event"
    },
    {
      "inputs": [],
      "name": "getAllWaves",
      "outputs": [
        {
          "components": [
            {
              "internalType": "address",
              "name": "waver",
              "type": "address"
            },
            {
              "internalType": "string",
              "name": "name",
              "type": "string"
            },
            {
              "internalType": "uint256",
              "name": "timestamp",
              "type": "uint256"
            }
          ],
          "internalType": "struct WavePortal.Wave[]",
          "name": "",
          "type": "tuple[]"
        }
      ],
      "stateMutability": "view",
      "type": "function"
    },
    {
      "inputs": [],
      "name": "getTotalWaves",
      "outputs": [
        {
          "internalType": "uint256",
          "name": "",
          "type": "uint256"
        }
      ],
      "stateMutability": "view",
      "type": "function"
    },
    {
      "inputs": [
        {
          "internalType": "address",
          "name": "user",
          "type": "address"
        }
      ],
      "name": "getUsersStats",
      "outputs": [
        {
          "internalType": "uint256",
          "name": "",
          "type": "uint256"
        }
      ],
      "stateMutability": "view",
      "type": "function"
    },
    {
      "inputs": [
        {
          "internalType": "string",
          "name": "_message",
          "type": "string"
        }
      ],
      "name": "wave",
      "outputs": [],
      "stateMutability": "nonpayable",
      "type": "function"
    }
  ],
  "bytecode": "0x60806040526200003360405180606001604052806023815260200162001072602391396200003960201b620005451760201c565b620001cd565b620000d98160405160240162000050919062000146565b6040516020818303038152906040527f41304fac000000000000000000000000000000000000000000000000000000007bffffffffffffffffffffffffffffffffffffffffffffffffffffffff19166020820180517bffffffffffffffffffffffffffffffffffffffffffffffffffffffff8381831617835250505050620000dc60201b60201c565b50565b60008151905060006a636f6e736f6c652e6c6f679050602083016000808483855afa5050505050565b600062000112826200016a565b6200011e818562000175565b93506200013081856020860162000186565b6200013b81620001bc565b840191505092915050565b6000602082019050818103600083015262000162818462000105565b905092915050565b600081519050919050565b600082825260208201905092915050565b60005b83811015620001a657808201518184015260208101905062000189565b83811115620001b6576000848401525b50505050565b6000601f19601f8301169050919050565b610e9580620001dd6000396000f3fe608060405234801561001057600080fd5b506004361061004c5760003560e01c8063449d46c0146100515780639a2cdc081461006d578063bd43a9081461008b578063cc99820d146100a9575b600080fd5b61006b600480360381019061006691906107ec565b6100d9565b005b6100756103a2565b6040516100829190610ae6565b60405180910390f35b6100936103ab565b6040516100a09190610a32565b60405180910390f35b6100c360048036038101906100be91906107c3565b6104fc565b6040516100d09190610ae6565b60405180910390f35b60016000808282546100eb9190610bf8565b925050819055506101316040518060400160405280600c81526020017f2573206861732077617665640000000000000000000000000000000000000000815250336105de565b60018060003373ffffffffffffffffffffffffffffffffffffffff1673ffffffffffffffffffffffffffffffffffffffff16815260200190815260200160002060008282546101809190610bf8565b92505081905550600260405180606001604052803373ffffffffffffffffffffffffffffffffffffffff16815260200183815260200142815250908060018154018082558091505060019003906000526020600020906003020160009091909190915060008201518160000160006101000a81548173ffffffffffffffffffffffffffffffffffffffff021916908373ffffffffffffffffffffffffffffffffffffffff16021790555060208201518160010190805190602001906102469291906106a3565b506040820151816002015550503373ffffffffffffffffffffffffffffffffffffffff167f5f7e16dc676677766a70e9c5628aa6c54ddb8b6e5188e2ae1e1f17f1ffbea716428360405161029b929190610b01565b60405180910390a260006509184e72a0009050478111156102f1576040517f08c379a00000000000000000000000000000000000000000000000000000000081526004016102e890610ac6565b60405180910390fd5b60003373ffffffffffffffffffffffffffffffffffffffff168260405161031790610a1d565b60006040518083038185875af1925050503d8060008114610354576040519150601f19603f3d011682016040523d82523d6000602084013e610359565b606091505b505090508061039d576040517f08c379a000000000000000000000000000000000000000000000000000000000815260040161039490610aa6565b60405180910390fd5b505050565b60008054905090565b60606002805480602002602001604051908101604052809291908181526020016000905b828210156104f357838290600052602060002090600302016040518060600160405290816000820160009054906101000a900473ffffffffffffffffffffffffffffffffffffffff1673ffffffffffffffffffffffffffffffffffffffff1673ffffffffffffffffffffffffffffffffffffffff16815260200160018201805461045890610ccc565b80601f016020809104026020016040519081016040528092919081815260200182805461048490610ccc565b80156104d15780601f106104a6576101008083540402835291602001916104d1565b820191906000526020600020905b8154815290600101906020018083116104b457829003601f168201915b50505050508152602001600282015481525050815260200190600101906103cf565b50505050905090565b6000600160008373ffffffffffffffffffffffffffffffffffffffff1673ffffffffffffffffffffffffffffffffffffffff168152602001908152602001600020549050919050565b6105db816040516024016105599190610a54565b6040516020818303038152906040527f41304fac000000000000000000000000000000000000000000000000000000007bffffffffffffffffffffffffffffffffffffffffffffffffffffffff19166020820180517bffffffffffffffffffffffffffffffffffffffffffffffffffffffff838183161783525050505061067a565b50565b61067682826040516024016105f4929190610a76565b6040516020818303038152906040527f319af333000000000000000000000000000000000000000000000000000000007bffffffffffffffffffffffffffffffffffffffffffffffffffffffff19166020820180517bffffffffffffffffffffffffffffffffffffffffffffffffffffffff838183161783525050505061067a565b5050565b60008151905060006a636f6e736f6c652e6c6f679050602083016000808483855afa5050505050565b8280546106af90610ccc565b90600052602060002090601f0160209004810192826106d15760008555610718565b82601f106106ea57805160ff1916838001178555610718565b82800160010185558215610718579182015b828111156107175782518255916020019190600101906106fc565b5b5090506107259190610729565b5090565b5b8082111561074257600081600090555060010161072a565b5090565b600061075961075484610b56565b610b31565b90508281526020810184848401111561077157600080fd5b61077c848285610c8a565b509392505050565b60008135905061079381610e48565b92915050565b600082601f8301126107aa57600080fd5b81356107ba848260208601610746565b91505092915050565b6000602082840312156107d557600080fd5b60006107e384828501610784565b91505092915050565b6000602082840312156107fe57600080fd5b600082013567ffffffffffffffff81111561081857600080fd5b61082484828501610799565b91505092915050565b600061083983836109af565b905092915050565b61084a81610c4e565b82525050565b61085981610c4e565b82525050565b600061086a82610b97565b6108748185610bba565b93508360208202850161088685610b87565b8060005b858110156108c257848403895281516108a3858261082d565b94506108ae83610bad565b925060208a0199505060018101905061088a565b50829750879550505050505092915050565b60006108df82610ba2565b6108e98185610bd6565b93506108f9818560208601610c99565b61090281610dbc565b840191505092915050565b600061091882610ba2565b6109228185610be7565b9350610932818560208601610c99565b61093b81610dbc565b840191505092915050565b6000610953601283610be7565b915061095e82610dcd565b602082019050919050565b6000610976602a83610be7565b915061098182610df6565b604082019050919050565b6000610999600083610bcb565b91506109a482610e45565b600082019050919050565b60006060830160008301516109c76000860182610841565b50602083015184820360208601526109df82826108d4565b91505060408301516109f460408601826109ff565b508091505092915050565b610a0881610c80565b82525050565b610a1781610c80565b82525050565b6000610a288261098c565b9150819050919050565b60006020820190508181036000830152610a4c818461085f565b905092915050565b60006020820190508181036000830152610a6e818461090d565b905092915050565b60006040820190508181036000830152610a90818561090d565b9050610a9f6020830184610850565b9392505050565b60006020820190508181036000830152610abf81610946565b9050919050565b60006020820190508181036000830152610adf81610969565b9050919050565b6000602082019050610afb6000830184610a0e565b92915050565b6000604082019050610b166000830185610a0e565b8181036020830152610b28818461090d565b90509392505050565b6000610b3b610b4c565b9050610b478282610cfe565b919050565b6000604051905090565b600067ffffffffffffffff821115610b7157610b70610d8d565b5b610b7a82610dbc565b9050602081019050919050565b6000819050602082019050919050565b600081519050919050565b600081519050919050565b6000602082019050919050565b600082825260208201905092915050565b600081905092915050565b600082825260208201905092915050565b600082825260208201905092915050565b6000610c0382610c80565b9150610c0e83610c80565b9250827fffffffffffffffffffffffffffffffffffffffffffffffffffffffffffffffff03821115610c4357610c42610d2f565b5b828201905092915050565b6000610c5982610c60565b9050919050565b600073ffffffffffffffffffffffffffffffffffffffff82169050919050565b6000819050919050565b82818337600083830152505050565b60005b83811015610cb7578082015181840152602081019050610c9c565b83811115610cc6576000848401525b50505050565b60006002820490506001821680610ce457607f821691505b60208210811415610cf857610cf7610d5e565b5b50919050565b610d0782610dbc565b810181811067ffffffffffffffff82111715610d2657610d25610d8d565b5b80604052505050565b7f4e487b7100000000000000000000000000000000000000000000000000000000600052601160045260246000fd5b7f4e487b7100000000000000000000000000000000000000000000000000000000600052602260045260246000fd5b7f4e487b7100000000000000000000000000000000000000000000000000000000600052604160045260246000fd5b6000601f19601f8301169050919050565b7f4661696c656420746f2073656e64206574680000000000000000000000000000600082015250565b7f547279696e6720746f207769746864726177206d6f7265206d6f6e657920746860008201527f616e2062616c616e636500000000000000000000000000000000000000000000602082015250565b50565b610e5181610c4e565b8114610e5c57600080fd5b5056fea264697066735822122035bad10663eabb3abcc8b5cf58899542b2d2a7880e0a3282bf47fae73e9adef564736f6c6343000804003342656172732c2042656574732c20426174746c6520537461722047616c616374696361",
  "linkReferences": {},
  "deployedLinkReferences": {}
}