{
  "_format": "hh-sol-artifact-1",
  "contractName": "WavePortal",
  "sourceName": "contracts/WavePortal.sol",
  "abi": [
    {
      "inputs": [],
      "stateMutability": "payable",
      "type": "constructor"
    },
    {
      "anonymous": false,
      "inputs": [
        {
          "indexed": true,
          "internalType": "address",
          "name": "from",
          "type": "address"
        },
        {
          "indexed": false,
          "internalType": "uint256",
          "name": "timestamp",
          "type": "uint256"
        },
        {
          "indexed": false,
          "internalType": "string",
          "name": "message",
          "type": "string"
        }
      ],
      "name": "NewWave",
      "type": "event"
    },
    {
      "inputs": [],
      "name": "getAllWaves",
      "outputs": [
        {
          "components": [
            {
              "internalType": "address",
              "name": "waver",
              "type": "address"
            },
            {
              "internalType": "string",
              "name": "name",
              "type": "string"
            },
            {
              "internalType": "uint256",
              "name": "timestamp",
              "type": "uint256"
            }
          ],
          "internalType": "struct WavePortal.Wave[]",
          "name": "",
          "type": "tuple[]"
        }
      ],
      "stateMutability": "view",
      "type": "function"
    },
    {
      "inputs": [],
      "name": "getTotalWaves",
      "outputs": [
        {
          "internalType": "uint256",
          "name": "",
          "type": "uint256"
        }
      ],
      "stateMutability": "view",
      "type": "function"
    },
    {
      "inputs": [
        {
          "internalType": "address",
          "name": "user",
          "type": "address"
        }
      ],
      "name": "getUsersStats",
      "outputs": [
        {
          "internalType": "uint256",
          "name": "",
          "type": "uint256"
        }
      ],
      "stateMutability": "view",
      "type": "function"
    },
    {
      "inputs": [
        {
          "internalType": "address",
          "name": "",
          "type": "address"
        }
      ],
      "name": "lastWavedAt",
      "outputs": [
        {
          "internalType": "uint256",
          "name": "",
          "type": "uint256"
        }
      ],
      "stateMutability": "view",
      "type": "function"
    },
    {
      "inputs": [
        {
          "internalType": "string",
          "name": "_message",
          "type": "string"
        }
      ],
      "name": "wave",
      "outputs": [],
      "stateMutability": "nonpayable",
      "type": "function"
    }
  ],
  "bytecode": "0x608060405262000033604051806060016040528060238152602001620012dc602391396200003960201b620006e31760201c565b620001cd565b620000d98160405160240162000050919062000146565b6040516020818303038152906040527f41304fac000000000000000000000000000000000000000000000000000000007bffffffffffffffffffffffffffffffffffffffffffffffffffffffff19166020820180517bffffffffffffffffffffffffffffffffffffffffffffffffffffffff8381831617835250505050620000dc60201b60201c565b50565b60008151905060006a636f6e736f6c652e6c6f679050602083016000808483855afa5050505050565b600062000112826200016a565b6200011e818562000175565b93506200013081856020860162000186565b6200013b81620001bc565b840191505092915050565b6000602082019050818103600083015262000162818462000105565b905092915050565b600081519050919050565b600082825260208201905092915050565b60005b83811015620001a657808201518184015260208101905062000189565b83811115620001b6576000848401525b50505050565b6000601f19601f8301169050919050565b6110ff80620001dd6000396000f3fe608060405234801561001057600080fd5b50600436106100575760003560e01c8063449d46c01461005c5780639a2cdc0814610078578063a42a466314610096578063bd43a908146100c6578063cc99820d146100e4575b600080fd5b6100766004803603810190610071919061098a565b610114565b005b610080610528565b60405161008d9190610cc7565b60405180910390f35b6100b060048036038101906100ab9190610961565b610531565b6040516100bd9190610cc7565b60405180910390f35b6100ce610549565b6040516100db9190610bf3565b60405180910390f35b6100fe60048036038101906100f99190610961565b61069a565b60405161010b9190610cc7565b60405180910390f35b42600f600360003373ffffffffffffffffffffffffffffffffffffffff1673ffffffffffffffffffffffffffffffffffffffff168152602001908152602001600020546101619190610dd9565b106101a1576040517f08c379a000000000000000000000000000000000000000000000000000000000815260040161019890610ca7565b60405180910390fd5b42600360003373ffffffffffffffffffffffffffffffffffffffff1673ffffffffffffffffffffffffffffffffffffffff1681526020019081526020016000208190555060016000808282546101f79190610dd9565b9250508190555061023d6040518060400160405280600c81526020017f25732068617320776176656400000000000000000000000000000000000000008152503361077c565b60018060003373ffffffffffffffffffffffffffffffffffffffff1673ffffffffffffffffffffffffffffffffffffffff168152602001908152602001600020600082825461028c9190610dd9565b92505081905550600460405180606001604052803373ffffffffffffffffffffffffffffffffffffffff16815260200183815260200142815250908060018154018082558091505060019003906000526020600020906003020160009091909190915060008201518160000160006101000a81548173ffffffffffffffffffffffffffffffffffffffff021916908373ffffffffffffffffffffffffffffffffffffffff1602179055506020820151816001019080519060200190610352929190610841565b506040820151816002015550503373ffffffffffffffffffffffffffffffffffffffff167f5f7e16dc676677766a70e9c5628aa6c54ddb8b6e5188e2ae1e1f17f1ffbea71642836040516103a7929190610ce2565b60405180910390a26000606460025444426103c29190610dd9565b6103cc9190610dd9565b6103d69190610f10565b9050806002819055506032811015610524576104276040518060400160405280600681526020017f257320776f6e00000000000000000000000000000000000000000000000000008152503361077c565b60006509184e72a000905047811115610475576040517f08c379a000000000000000000000000000000000000000000000000000000000815260040161046c90610c87565b60405180910390fd5b60003373ffffffffffffffffffffffffffffffffffffffff168260405161049b90610bde565b60006040518083038185875af1925050503d80600081146104d8576040519150601f19603f3d011682016040523d82523d6000602084013e6104dd565b606091505b5050905080610521576040517f08c379a000000000000000000000000000000000000000000000000000000000815260040161051890610c67565b60405180910390fd5b50505b5050565b60008054905090565b60036020528060005260406000206000915090505481565b60606004805480602002602001604051908101604052809291908181526020016000905b8282101561069157838290600052602060002090600302016040518060600160405290816000820160009054906101000a900473ffffffffffffffffffffffffffffffffffffffff1673ffffffffffffffffffffffffffffffffffffffff1673ffffffffffffffffffffffffffffffffffffffff1681526020016001820180546105f690610ead565b80601f016020809104026020016040519081016040528092919081815260200182805461062290610ead565b801561066f5780601f106106445761010080835404028352916020019161066f565b820191906000526020600020905b81548152906001019060200180831161065257829003601f168201915b505050505081526020016002820154815250508152602001906001019061056d565b50505050905090565b6000600160008373ffffffffffffffffffffffffffffffffffffffff1673ffffffffffffffffffffffffffffffffffffffff168152602001908152602001600020549050919050565b610779816040516024016106f79190610c15565b6040516020818303038152906040527f41304fac000000000000000000000000000000000000000000000000000000007bffffffffffffffffffffffffffffffffffffffffffffffffffffffff19166020820180517bffffffffffffffffffffffffffffffffffffffffffffffffffffffff8381831617835250505050610818565b50565b6108148282604051602401610792929190610c37565b6040516020818303038152906040527f319af333000000000000000000000000000000000000000000000000000000007bffffffffffffffffffffffffffffffffffffffffffffffffffffffff19166020820180517bffffffffffffffffffffffffffffffffffffffffffffffffffffffff8381831617835250505050610818565b5050565b60008151905060006a636f6e736f6c652e6c6f679050602083016000808483855afa5050505050565b82805461084d90610ead565b90600052602060002090601f01602090048101928261086f57600085556108b6565b82601f1061088857805160ff19168380011785556108b6565b828001600101855582156108b6579182015b828111156108b557825182559160200191906001019061089a565b5b5090506108c391906108c7565b5090565b5b808211156108e05760008160009055506001016108c8565b5090565b60006108f76108f284610d37565b610d12565b90508281526020810184848401111561090f57600080fd5b61091a848285610e6b565b509392505050565b600081359050610931816110b2565b92915050565b600082601f83011261094857600080fd5b81356109588482602086016108e4565b91505092915050565b60006020828403121561097357600080fd5b600061098184828501610922565b91505092915050565b60006020828403121561099c57600080fd5b600082013567ffffffffffffffff8111156109b657600080fd5b6109c284828501610937565b91505092915050565b60006109d78383610b70565b905092915050565b6109e881610e2f565b82525050565b6109f781610e2f565b82525050565b6000610a0882610d78565b610a128185610d9b565b935083602082028501610a2485610d68565b8060005b85811015610a605784840389528151610a4185826109cb565b9450610a4c83610d8e565b925060208a01995050600181019050610a28565b50829750879550505050505092915050565b6000610a7d82610d83565b610a878185610db7565b9350610a97818560208601610e7a565b610aa081610ffd565b840191505092915050565b6000610ab682610d83565b610ac08185610dc8565b9350610ad0818560208601610e7a565b610ad981610ffd565b840191505092915050565b6000610af1601283610dc8565b9150610afc8261100e565b602082019050919050565b6000610b14602a83610dc8565b9150610b1f82611037565b604082019050919050565b6000610b37600083610dac565b9150610b4282611086565b600082019050919050565b6000610b5a600f83610dc8565b9150610b6582611089565b602082019050919050565b6000606083016000830151610b8860008601826109df565b5060208301518482036020860152610ba08282610a72565b9150506040830151610bb56040860182610bc0565b508091505092915050565b610bc981610e61565b82525050565b610bd881610e61565b82525050565b6000610be982610b2a565b9150819050919050565b60006020820190508181036000830152610c0d81846109fd565b905092915050565b60006020820190508181036000830152610c2f8184610aab565b905092915050565b60006040820190508181036000830152610c518185610aab565b9050610c6060208301846109ee565b9392505050565b60006020820190508181036000830152610c8081610ae4565b9050919050565b60006020820190508181036000830152610ca081610b07565b9050919050565b60006020820190508181036000830152610cc081610b4d565b9050919050565b6000602082019050610cdc6000830184610bcf565b92915050565b6000604082019050610cf76000830185610bcf565b8181036020830152610d098184610aab565b90509392505050565b6000610d1c610d2d565b9050610d288282610edf565b919050565b6000604051905090565b600067ffffffffffffffff821115610d5257610d51610fce565b5b610d5b82610ffd565b9050602081019050919050565b6000819050602082019050919050565b600081519050919050565b600081519050919050565b6000602082019050919050565b600082825260208201905092915050565b600081905092915050565b600082825260208201905092915050565b600082825260208201905092915050565b6000610de482610e61565b9150610def83610e61565b9250827fffffffffffffffffffffffffffffffffffffffffffffffffffffffffffffffff03821115610e2457610e23610f41565b5b828201905092915050565b6000610e3a82610e41565b9050919050565b600073ffffffffffffffffffffffffffffffffffffffff82169050919050565b6000819050919050565b82818337600083830152505050565b60005b83811015610e98578082015181840152602081019050610e7d565b83811115610ea7576000848401525b50505050565b60006002820490506001821680610ec557607f821691505b60208210811415610ed957610ed8610f9f565b5b50919050565b610ee882610ffd565b810181811067ffffffffffffffff82111715610f0757610f06610fce565b5b80604052505050565b6000610f1b82610e61565b9150610f2683610e61565b925082610f3657610f35610f70565b5b828206905092915050565b7f4e487b7100000000000000000000000000000000000000000000000000000000600052601160045260246000fd5b7f4e487b7100000000000000000000000000000000000000000000000000000000600052601260045260246000fd5b7f4e487b7100000000000000000000000000000000000000000000000000000000600052602260045260246000fd5b7f4e487b7100000000000000000000000000000000000000000000000000000000600052604160045260246000fd5b6000601f19601f8301169050919050565b7f4661696c656420746f2073656e64206574680000000000000000000000000000600082015250565b7f547279696e6720746f207769746864726177206d6f7265206d6f6e657920746860008201527f616e2062616c616e636500000000000000000000000000000000000000000000602082015250565b50565b7f57616974203136206d696e757465730000000000000000000000000000000000600082015250565b6110bb81610e2f565b81146110c657600080fd5b5056fea2646970667358221220838f71473b2ff1a8fdb7445fd3254c57c864410d20a88c8829f00942caef98ee64736f6c6343000804003342656172732c2042656574732c20426174746c6520537461722047616c616374696361",
  "linkReferences": {},
  "deployedLinkReferences": {}
}